:10F00000E02DFE1F152D0100C12B0100112D010067
:10F01000112D0100112D0100112D0100112D0100F4
:10F02000000000000000000000000000112D0100A1
:10F03000112D010000000000112D0100112D010013
:10F040009D290100C92501009D260100AD27010071
:10F050009D260100AD270100000000000000000017
:10F0600000000000000000000000000000000000A0
:10F070000000000000000000000000000000000090
:10F080000000000000000000000000000000000080
:10F090000000000000000000000000000000000070
:10F40000FFFFFFFFFFFDFFFFFCFFFFFFFFFFFFFF11
:10F41000FCFFFFFFFFFFFFFFFCFFFF00FFFFFF0000
:10F42000FCFF0F20FFFF0F20FCFF7F40FFFF7F400E
:10F43000FCFF0D40FFFF0D40FFFFFFFFFFFFFFFF41
:10F44000FFFFFFFFFFFFFFFFFFFFFFFFFFFFFFFFCC
:10F45000FFFFFFFFFFFFFFFFFFFFFFFFFFFFFFFFBC
:10F46000FFFFFFFFFFFFFFFFFFFFFFFFFFFFFFFFAC
:10F47000FFFFFFFFFFFFFFFFFFFFFFFFFFFFFFFF9C
:10F48000FFFFFFFFFFFFFFFFFFFFFFFFFFFFFFFF8C
:10F49000FFFFFFFFFFFFFFFFFFFFFFFFFFFFFFFF7C
:10F4A000FFFFFFFFFFFFFFFFFFFFFFFFFFFFFFFF6C
:10F4B000FFFFFFFFFFFFFFFFFFFFFFFFFFFFFFFF5C
:10F4C000FFFFFFFFFFFFFFFFFFFFFFFFFFFFFFFF4C
:10F4D000FFFFFFFFFFFFFFFFFFFFFFFFFFFFFFFF3C
:10F4E000FFFFFFFFFFFFFFFFFFFFFFFFFFFFFFFF2C
:10F4F000FFFFFFFFFFFFFFFFFFFFFFFFFFFFFFFF1C
:10F500000348044B834202D0034B03B118477047B2
:10F510003807FE1F3807FE1F000000000548064B95
:10F520001B1AD90F01EBA301491002D0034B03B101
:10F53000184770473807FE1F3807FE1F00000000FD
:10F5400010B5064C237843B9FFF7DAFF044B13B12B
:10F550000448AFF300800123237010BD5007FE1F45
:10F56000000000009837010008B5054B1BB10549A4
:10F570000548AFF30080BDE80840FFF7CFBF00BFEC
:10F58000000000005407FE1F9837010039B1013A0E
:10F59000014412F8013F00F8013B8842F9D170475D
:10F5A000024A034BD2881A80704700BFC030010066
:10F5B0007007FE1F2DE9F04F002485B0244E254F23
:10F5C000DFF89CB0DFF89CA0E846A14633880BEB3F
:10F5D0004313DD69CAF80050AB7C23B395E80F00F4
:10F5E00088E80F00B36885F8129041460BB12046B9
:10F5F0009847C7F800900134A4B2032C06F1100616
:10F6000007F10407E2D1144C144823888188B3FB26
:10F61000F1F201FB123292B28AB101339BB2238024
:10F6200005B0BDE8F08F3B687268013393423B60E0
:10F63000E1D9F36803B1984700233B60DBE78368B7
:10F6400003B198470123238005B0BDE8F08F00BFC8
:10F65000CC3001007407FE1F7007FE1FC030010090
:10F66000FC3001008407FE1F84B070B584B0234EC7
:10F670000DF1240C8CE80E00214A06EB4010138893
:10F68000C4690133138044B19CE80F0084E80F0083
:10F69000238A01221344A27423824FF0000CF46BDE
:10F6A000184A60464FEA0C1302EB0C11D358012B99
:10F6B0000CD00CF1010CBCF1030FF3D108B1124BCB
:10F6C0001D6004B0BDE8704004B07047A07C10B964
:10F6D00025461846EDE70C4B8E681C6094E80F0039
:10F6E0006D464FF0000E85E80F0084F812E0002E02
:10F6F000E7D029461FFA8CF0B047E2E7FC30010062
:10F700008007FE1FCC3001008407FE1F08B500F003
:10F7100067F8FFF745FF01F0BFFB02F065F8BDE8B1
:10F72000084000F04FBA00BF08B5064B1B68FFF752
:10F7300041FF01F0E5FB02F089F8BDE8084000F068
:10F740008BB800BF6C07FE1F014B1860704700BFED
:10F75000C407FE1F30B4054C029D24681CB10295FD
:10F76000A44630BC604730BC704700BFC407FE1FD2
:10F77000F0B5194E194D87B09646B4460020DCF816
:10F78000044055F8047B1C40A7420CF1200C21D00A
:10F7900001300328F3D1054606EB40124401127AEA
:10F7A000724501D007B0F0BD02938DF80C1029B15D
:10F7B0000A460DF10D000C9903F060FB30198469C5
:10F7C000002CEFD0059A009202AB0ECB2846A04742
:10F7D00007B0F0BDC5B2DFE7FC300100C807FE1F6F
:10F7E000064A0748002350F8231042F8041B083348
:10F7F000302BF8D10348FFF7A7BF00BFC807FE1F93
:10F80000FC30010071F7000084B000B587B009A892
:10F8100080E80E009DF831208DF808209DF8282002
:10F82000019100238DF80A208DF8093022B10DF1E5
:10F83000290104A803F022FB01AA0221054802F0D5
:10F840001DFDB0FA80F0400907B05DF804EB04B08C
:10F85000704700BF6022FE1F2DE9F84FAD4DAE4E40
:10F860002A6831689069AD4B012488421C7040F2CF
:10F870003981DFF8C48298F80010081E18BF0120F3
:10F88000002940F096811870537C062B5ED1A44B62
:10F89000D5F804E01868DEF80890002800F0ED8044
:10F8A000A04F9368A04C3978928922814FF0000CC8
:10F8B000C4E90039A4F80AC000295BD09B4B93F837
:10F8C00000C000231A010133815C614558D0082B28
:10F8D000F8D1DFF868A29AF80030002B40F0C5801C
:10F8E0007F2389F80030636883F801C062681121C2
:10F8F0009170D5F804E00323DEF8089063810121BC
:10F900004FF0020BAEF80E3099F800307F2B62D02A
:10F9100033682A6803F59C5308330020936188F804
:10F920000000012969D9BBF1030F11D00023BBF1FD
:10F93000040F8AF8003034682B6811D1197C002933
:10F9400000F0AD801A68944280F0A080BDE8F88F86
:10F950000021084601F036FF002334688AF80030A1
:10F960002B681A68A242F1D81A7C002AEED11A60DC
:10F97000BDE8F88F6D4A93F800C082F800C0A0E798
:10F9800010448268002A7ED0694B1B785F2B00F000
:10F99000A78041D8022B03D0032B0CBF04230123E3
:10F9A000017B0B423FD0604890470228834600F01D
:10F9B000F180042800F0D680012800F0C180D5F83D
:10F9C00004E06389DEF80890DFF870A10022411E90
:10F9D0003A70C9B296E799F80230112BA1D07F2B6B
:10F9E0009FD032682B6802F59C5208329A61012937
:10F9F0004FF0000388F8003095D80021084601F048
:10FA0000E1FE6B685A7C052A5FD00421002234682D
:10FA100059748AF80020A3E7652B017B0CBF1023E3
:10FA200001230B42BFD17F2189F80010636883F85E
:10FA300001C0636803229970134662816268DFF82F
:10FA4000FCA09278132A47D09AF80020012A15BF0B
:10FA5000012102214FF0020B4FF0030BD5F804E017
:10FA60000022DEF808903A704CE700238AF8003054
:10FA7000022100234FF0030B44E7DFF8C0A002216E
:10FA80004FF0030B40E7DFF8B4A0F1E75A682244D7
:10FA9000002004211A6058748EF8111056E70846A9
:10FAA00001F090FE234A2B685168D5F804E00A194A
:10FAB000C3E90021012018749EF81110052923D0F4
:10FAC000A2428EF811B0E3D940E70122DA75002393
:10FAD00034688AF8003043E701214FF0020BBDE79C
:10FAE00008235DE712480178652955D03168DFF8B1
:10FAF000488001F59C510831916100211970012362
:10FB000088F800100370BFE6A2428EF81700BFD934
:10FB10001CE700BFF815FE1F6C07FE1FE507FE1F60
:10FB2000E807FE1FE107FE1FEC07FE1FE007FE1FB0
:10FB3000E607FE1F2822FE1FE407FE1FE815FE1F32
:10FB4000236862681B78DFF874A040331370638900
:10FB5000D5F804E001339BB20021DEF80890638100
:10FB60003970CFE62368DFF854A01A7863685A70BA
:10FB700063687F221A70636878229A706389D5F867
:10FB800004E003339BB20122DEF8089063813A70EF
:10FB90000321B7E6638951E73168DFF8248001F576
:10FBA0009C510831916198F80010081E18BF01207F
:10FBB00066E60148A1E700BFE607FE1FE815FE1F45
:10FBC000E407FE1F094A0A4BD2E90001094A896885
:10FBD00010B4846808481060084AC3E90041012154
:10FBE000002011705DF8044B98607047F815FE1FF7
:10FBF000EC07FE1FE807FE1FBC340100E607FE1FEE
:10FC000003681D4A5B781370802B018942681FD0FE
:10FC100002290BD07F23137043683E225A7042683A
:10FC2000132103239170438102207047BBB910B4A4
:10FC3000124C134994F800C00B6001214181BCF1C2
:10FC4000000F537014BF032008465DF8044B704743
:10FC50000A4B4FF0010C022983F800C0DAD10321CE
:10FC60007F234181137043683E225A7043681222F9
:10FC70009A700220704700BFF907FE1FF807FE1FA9
:10FC80006C07FE1F70B511F07F04154682B0024666
:10FC900021F07F0630D01EBB1E48E4B2AB1900F144
:10FCA000800C07E0197800F8011F6045ECB203F101
:10FCB000010309D0651E002CF4D1FF2100F8011FBB
:10FCC000604503F10103F5D172B61349134880234F
:10FCD00002F0AEF962B6B0FA80F0400902B070BD31
:10FCE00072B60190334629460C4802F0A1F962B67B
:10FCF00070B9019A3244CFE772B6084833462946B4
:10FD000002F096F962B6B0FA80F0400902B070BD18
:10FD10000020E3E7FB07FE1FFC07FE1F8C22FE1FEF
:10FD2000F0B4104D104C28600023238003F0030032
:10FD300000E020B18B42FCD30120F0BC70472E685C
:10FD4000371D36682F6057683B4426FA00FC83F85D
:10FD500002C02388083001339BB220282380F2D1CF
:10FD6000E4E700BF7C08FE1F8008FE1F2DE9F04776
:10FD700003897F4A7F4F1380991E02687E4E396047
:10FD80001FFA81FC40F6FD750446AC455078307092
:10FD900021D8DFF80C8298F80050032D19D0774B4A
:10FDA0001B78002B00F0A080DFF8E49199F8003078
:10FDB00083421DD063687F221A70636836225A70AE
:10FDC000636873229A700323638102252846BDE885
:10FDD000F087022B3AD063687F221A70636836225C
:10FDE0005A70636813229A70032363810225EDE73A
:10FDF000022D40F08380DFF8ACA10232DAF8000077
:10FE0000FFF740FF002800F083805D4A30781378C8
:10FE10005C4E39685C4D013BDBB2137032680A44BA
:10FE20003260DAF800200A44CAF800202A680A443E
:10FE30002A6099F80020013289F8002062680125C3
:10FE400050706581002BC1D1504A44E04B4B1B7868
:10FE5000002B49D04E4F3B788342ABD1DFF848911D
:10FE60004C4D99F800302868012B5FD94FF4806120
:10FE70002246FFF755FF484ADFF830A11368CAF859
:10FE80000010A3F5806313606368002862D0DFF878
:10FE900020C1DAF80010DCF8002030783A4E0A442D
:10FEA000CCF8002032680A4432602A680A442A608A
:10FEB0005870DAF800303A780133638199F80030ED
:10FEC0000125013BDBB22A4489F800303A70002B4F
:10FED0007FF47CAF314A2C4B12681B689A422FD1B9
:10FEE000042388F8003071E763687F221A70636822
:10FEF00036225A70636833229A7075E763687F22EE
:10FF00001A70636836225A70636824229A706BE70D
:10FF100063687F221A70636836225A70636872229F
:10FF20009A70174B03221B7862818BE71A4BDFF81C
:10FF30007CA01968CAF800102246FFF7F1FEA3E77B
:10FF400063687F221A70636836225A706368712270
:10FF50009A7049E77F221A70636836225A70626885
:10FF600099F8003072219170032262810225AEE778
:10FF70008808FE1F8408FE1F8208FE1FB209FE1FAC
:10FF8000BC08FE1FA808FE1FAC08FE1FB408FE1F19
:10FF90002806FE1FA008FE1F8C08FE1F9C08FE1FDF
:10FFA000C408FE1FB808FE1FA408FE1F9008FE1F0D
:10FFB0009408FE1F2DE9F0476C49036807890F80FC
:10FFC0006B4A5E78167086466A4A9878DFF8D8C120
:10FFD00069496A4C6A4D107000F00F0800224FEA20
:10FFE000101922602A608CF8008081F80090B8F126
:10FFF000000F09D0991C01EB080A11F801CF4CEA57
:020000021000EC
:1000000002228A452260F8D1B9F1000F25D003F110
:10001000020CCC44C44408F102084344002213F803
:10002000011F41EA022263452A60F8D1072F28D92F
:10003000AEB92238222812D8524920684C68524B57
:10004000A0421E702CD00C69844227D0DEF8042018
:1000500002207F211870117005E0072F11D9DEF8FA
:1000600004307F221A70DEF8043035225A70DEF830
:10007000043031229A700323AEF80A300220BDE822
:10008000F087DEF804307F221A70DEF80430352263
:100090005A70DEF8043013229A70ECE701261E70C5
:1000A000DEF80430002ADCD0384C2478022CD8D179
:1000B000374F97F800C0BCF1000F35D1DFF8EC8066
:1000C00098F80080B8F1000F39D006EB460601EB36
:1000D00086014E688642C4D889680E448642C0D3E1
:1000E0008A4237D820215970DEF80430294804218B
:1000F0009970DEF804302849DC70C0F800C0274849
:100100002B68C0F800C0264803602648C2F30904E3
:100110000360930A002C18BF01330B7003230120E6
:10012000AEF80A303B70AAE77F221A70DEF804307E
:1001300035225A70DEF8043024229A709BE77F2221
:100140001A70DEF8043035225A70DEF8043033229B
:100150009A7090E77F221A70DEF8043035225A70C8
:10016000DEF8043070229A7085E700BFA608FE1FF3
:100170009B08FE1F9A08FE1F9808FE1FA008FE1F7E
:100180009C08FE1F4C06FE1F8A08FE1FE607FE1F86
:10019000C408FE1FAC08FE1FA408FE1F9408FE1F23
:1001A0009008FE1F8C08FE1F9908FE1FB209FE1F53
:1001B0002DE9F0475B49036806890E805A4A5F784B
:1001C00017708646594A9878DFF88CC15849594CBF
:1001D000594D107000F00F0800224FEA10192260EC
:1001E0002A608CF8008081F80090B8F1000F09D0E7
:1001F000991C01EB080A11F801CF4CEA02228A454A
:100200002260F8D1B9F1000F26D003F1020CCC44E2
:10021000C44408F102084344002213F8011F41EAD4
:1002200002229C452A60F8D1072EDEF8043027D937
:10023000B7B92238222813D892B14049087801284A
:1002400029D07F221A70DEF8043034225A70DEF88A
:10025000043024229A700DE0072EDEF804300FD906
:100260007F221A70DEF8043034225A70DEF804302F
:1002700031229A700323AEF80A300220BDE8F087DD
:100280007F221A70DEF8043034225A70DEF804300F
:1002900013229A70EEE72A4D2D786DB32668294C0B
:1002A000294D247804EB440405EB84046568B542C9
:1002B000D6D8A4682544AE42D2D8A24227D820245A
:1002C0005C70DEF80430214F214E224D04249C70D6
:1002D000C2F3090C930ABCF1000F18BF0133DEF81A
:1002E00004403B700223E3700B70002333602B60EB
:1002F0000323AEF80A30C1E77F221A70DEF804301B
:1003000034225A70DEF8043033229A70B2E77F222A
:100310001A70DEF8043034225A70DEF8043070228D
:100320009A70A7E7BE08FE1FB308FE1FB208FE1FA3
:10033000B008FE1FB808FE1FB408FE1FC408FE1F49
:10034000B209FE1FC008FE1F4C06FE1FBC08FE1FA0
:10035000AC08FE1FA808FE1FB108FE1F2DE9F047DC
:100360000368028959785B88A64EA74D3170044610
:10037000A6485BBA032A02802B8032D9A44A12789D
:10038000022A0CD063687F221A706268312353708E
:10039000616803228B7062810220BDE8F0879D4A6C
:1003A000127852B39C4F3A889BB2934231D0636823
:1003B0004FF0030C7F21A4F80AC019706268312342
:1003C000537062689370B7F80CE02A88964534D071
:1003D0006268A4F80AC01170626853706268937012
:1003E000DAE763687F221A70636831225A706268A4
:1003F0001321032391706381CEE763687F221A7013
:10040000636831225A7062683321032391706381DB
:10041000C2E74FF0000C022969D0032959D0012905
:100420000FD063687F22032161811A7063683122D3
:100430005A70636812229A70AEE731784FF0010C5F
:10044000E9E70CEB4C0307EB830301889A788A42B7
:100450004FEA4C0E52D1DFF8DC81197A98F800305F
:10046000994240F08880042AA2F1040900F0AD808E
:100470000023DFF8A8A118462268024412790AF87E
:1004800003200133DBB24B451846F5D30EEB0C03CA
:1004900007EB830361485B689847614B1A7822B188
:1004A0002A88B2F57F4F00F093805E4A6368127825
:1004B00022B129884FF60172914276D07F221A70BC
:1004C000636831225A7062687221032391706381DC
:1004D00062E70088636804281CD07F221A70636872
:1004E00031225A70636813229A70618154E703883D
:1004F0006268042B29D07F23137075E763687F221D
:10050000032161811A70636831225A706368132273
:100510009A7041E74448007803280CD14349097890
:10052000FF292FD042490978FF2903D14FF60171E5
:100530008A422AD003217F2261811A7063683122A6
:100540005A70636824229A7026E73A4B1878A0B153
:1005500000201870032363815170D4E90012897858
:100560009170D4E90052EC782D49D4702E4A08706D
:100570001370012011E76368DCE703217F236181A9
:100580001370DBE7B2F57F4FCCD1032204216181E8
:100590005A70D4E9002392789A70D4E90023D27873
:1005A000DA706368FF221A71E3E732780321618110
:1005B0005A70D4E9002392789A70D4E900211C4B38
:1005C000D078C870FF221A70D3E7DFF850A05DE73B
:1005D000626830789AF80010032565815070D4E97C
:1005E000000280789070D4E900020024C078D070B6
:1005F0001C700E48104A012388F80030FF23037056
:100600001170B6E7D308FE1FCE08FE1FD008FE1FEC
:10061000E607FE1FB209FE1F6406FE1FC808FE1F84
:10062000CD08FE1FCC08FE1FD208FE1FC308FE1F08
:10063000C208FE1FC408FE1FC008FE1F10B5144CE0
:1006400002782378934202D0124B187810BD1249D9
:1006500003EB430301EB83039A68D20B72B6037872
:100660000E4803EB430301EB8301D2B2496801F06A
:1006700021FD62B6074B227820B90132D2B20121A6
:1006800022701970022A04BF00222270187810BD4F
:10069000C108FE1FCD08FE1F4C06FE1F8C22FE1F48
:1006A000084B02689A4204D0074B002200201A70BF
:1006B0007047064B00221A70034B012200201A706B
:1006C000704700BF11223344CC08FE1FC408FE1F30
:1006D000264A274B12682DE9F043194602F110040F
:1006E000107808705078487090788870D078C8700A
:1006F0000432944201F10401F2D11E4C1E4D04213A
:1007000019E0024693F8009093F801E093F802C0D4
:10071000D878013182EA090288EA0E0E87EA0C0CC9
:1007200070402C291A7483F811E083F812C0D87431
:1007300003F1040317D0DA6811F0030F4FEA910CAC
:10074000C2F30728C2F307474FEA1266D0B2D8D1E6
:1007500014F8082015F80CC014F80780A75D265C73
:1007600082EA0C02CEE7BDE8F08300BFD408FE1F8A
:10077000D808FE1FBC330100BC31010030B50F4B5F
:100780000F49102510FB05F404EB030E15FB005573
:100790007046002311F823C010F8012B82EA0C02E6
:1007A00001F823200133042BF4D10434AC420EF1C0
:1007B000040E01F10101EBD130BD00BFD808FE1FCE
:1007C0008809FE1FC20902EB420202EBC20282EA62
:1007D0004002C2F3C01303EB4303D2B203EBC303E3
:1007E000844683EA4203C1F34000DBB210FB02F00F
:1007F00001F0010212FB0CFCC1F38001DA0980EA6E
:100800000C0011FB03F102EB4202484002EBC20272
:10081000504080EA4300C0B2704700BF00B5184B9B
:1008200093F80AC0D97A587B93F807E000226CF35A
:10083000070261F30F22197A93F80FC061F3174290
:10084000597A61F31F62002160F30701987B9A6077
:1008500060F30F21002218796EF3070260F30F2274
:1008600058796CF3174160F3174293F80CC09879EC
:100870006CF31F6160F31F62D9605A605DF804FB7E
:100880008809FE1F2DE9F04F744B754D1960754BAB
:10089000286087B0744C1A6080461746FFF718FF2F
:1008A0002546002608EB0602002312F8011B05F876
:1008B00023100133042BF8D10436102E05F1010565
:1008C000F0D10A20FFF75AFF04F11006DFF8A091DB
:1008D00004F10408BA46092527463446FFF79EFF6F
:1008E0003B461A1D197819F8011003F8011B9A42AA
:1008F000F8D1A24201D01346F3E72846FFF73EFFA6
:10090000CDE90175CDE903A4CDF814803C4614F877
:10091000016B0E213046FFF755FF94F803B0E779DD
:10092000E57A82460B215846FFF74CFF0D218AEAF3
:10093000000338465FFA83FAFFF744FF09218AEA89
:10094000000328465FFA83FAFFF73CFF8AEA0003B8
:1009500004F8013C09213046FFF734FF0E2182469E
:100960005846FFF72FFF0B218AEA000338465FFA4B
:1009700083FAFFF727FF0D218AEA000328465FFA72
:1009800083FAFFF71FFF8AEA0003E3700D21304668
:10099000FFF718FF092182465846FFF713FF0E2183
:1009A0008AEA000338465FFA83FAFFF70BFF0B2150
:1009B0008AEA000328465FFA83FAFFF703FF8AEA10
:1009C0000003E37130460B21FFF7FCFE0D210646C4
:1009D0005846FFF7F7FE092146403846FFF7F2FE7A
:1009E000F6B246400E212846FFF7ECFEF5B2454030
:1009F000A045E5728BD1DDE90175013D15F0FF05DC
:100A0000DDE903A47FF46AAFDDF814B0FFF706FF59
:100A100016483C465746ABF104031A7819F80220F1
:100A200003F8012B9B45F8D10BF1040B5845F2D18B
:100A30000020FFF7A3FE00203A18002314F823102B
:100A400002F8011B0133042BF8D10430102804F103
:100A50000104F1D107B0BDE8F08F00BFD408FE1F3C
:100A60009C09FE1F9809FE1F8809FE1F9C09FE1F96
:100A7000BC32010000B585B000236A460D49013043
:100A8000CDE90033CDE90233FFF7FCFE0A4B6A469D
:100A900003F1100C13F8010B12F8011B884205D169
:100AA0006345F7D1012005B05DF804FB002005B0D7
:100AB0005DF804FB2C06FE1FA009FE1F2DE9F8437C
:100AC0000446006823894578012D0FD0022D13D0EC
:100AD00063687F221A70636827225A706268122145
:100AE0000323917063810220BDE8F883022B6268C2
:100AF0001CD07F23137004E0122B0BD063687F227D
:100B00001A70636827225A70626813210323917058
:100B10006381E8E7434E3378CBB16168424B4D7057
:100B20001122628100221A700120DDE73D4B5570D1
:100B30001B7833B3636800221121C3F80220C3F885
:100B40000620C3F80A20C3F80E206181ECE7374B7A
:100B50001B78002B3AD0364B1F785FBBDFF8C8807C
:100B600098F80020032A3DD00130FFF783FF0028CA
:100B700047D0626888F80070012355703370638134
:100B8000D2E72C4E6768DFF8B080013706F1100914
:100B9000D8F8005002F024F92844C0B206F8010F3A
:100BA000B14507F8010FF3D1204B112101226181DA
:100BB0001A70B9E763687F22032161811A70636844
:100BC00027225A70636837229A708CE763687F2205
:100BD0001A70636827225A70626824210323917077
:100BE000638180E76168012018707F230B70636860
:100BF00088F80070272159706368362199706281E6
:100C000071E763687F221A70636827225A706268EE
:100C100098F800303521917001330322628188F801
:100C2000003060E7B209FE1FB009FE1FB309FE1FC6
:100C3000B109FE1F9F09FE1F6C07FE1F10B4036859
:100C400037495A780A7002F17F03DBB2042B02D8CD
:100C5000344B01241C70344B44681B786BB97F23E0
:100C60002370436811225A70426833210323917024
:100C7000438102205DF8044B70470389022B0AD0A0
:100C80007F232370436811225A7042681321032383
:100C900091704381EDE702F07F02531E0A70042B2E
:100CA00033D8DFE803F02A21160C03001D4B1B7814
:100CB00001210522418162704BB10320DAE7194B13
:100CC0001B780121042241816270002BF5D10120A3
:100CD000D0E7144B15491A78012343810320607033
:100CE0000B70002AE9D1F2E70E4B1B78012102229A
:100CF00041816270002BE0D1E9E70A4A12780123B2
:100D000043816370002AE2D0D7E703227F23428128
:100D10002370436811225A70436812229A70A8E720
:100D2000B409FE1FB609FE1FB209FE1FB509FE1F5A
:100D300010B40268527802F17F01C9B20229034659
:100D4000018910D802292AD05A6803207F215881AE
:100D500011705A68102151705B6813229A7002203A
:100D60005DF8044B70470229EED1032A7AD01ED9D0
:100D70005F2A59D0652A4AD14168052058814A70B6
:100D800059680020887059683220C87059680B2053
:100D900008715B683F488821027059714CE002F08D
:100DA0007F02032A74D0012A1DD0012205E0012A06
:100DB00018D0022A08BF002229D136490878032812
:100DC0003CD058687F2101705868102444705868DE
:100DD0000324817002205C81002AC1D003205DF8C9
:100DE000044B704700225968012005245C8148703B
:100DF000596800248C7059683224CC7059680B24CF
:100E00000C715B68234C882120705971E4E75A68A3
:100E100003207F21588111705A68102151705B683E
:100E200012229A7002209BE71A48596802704FF00C
:100E3000010CA3F80AC04A70012091E70220087053
:100E4000002ACBD1596805245C81487058688270AB
:100E50005A683221D17059680B2008715B6888226A
:100E60005A71E9E700225868032105245C8141702A
:100E700058680024847058683224C47058680B2461
:100E800004715B68034C8820587121700120A3E72E
:100E90000122E8E7E607FE1F0D4B0E490E4830B46D
:100EA0000E4CD960C0E900110D480E490E4D056089
:100EB000C4E9003300220D4CC3E90422D1E900103B
:100EC000C3E900240A4B30BCC3E90010704700BFDF
:100ED000C809FE1FE009FE1FC009FE1FB809FE1F5A
:100EE000EC15FE1F9006FE1F3C3501000000020CB1
:100EF0002822FE1F014B1860704700BFE415FE1F3B
:100F00002DE9F04F844D2B6887B0D3B1834EDFF8C5
:100F1000148232680023CDF80D30CDF811304446EC
:100F200008F108090DF10D0754F8041B4B7C33B18F
:100F3000042B00F09780052B3BD0032B04D04C45AD
:100F4000F2D107B0BDE8F08F087C2A68012800F0D4
:100F5000EB803020387090680290B0F5006F34BF9D
:100F6000002001208DF81500507D002818BF0823AF
:100F70008DF80C30D3681B7B7B70D3685B7BBB70B8
:100F8000D36832681B6813440B60654B5888059B17
:100F9000009302AB0ECBFEF737FC0128336800F05C
:100FA0004F81052803D154F8043C00221A820237ED
:100FB000C5E70B7D43F0200307F8013B2B689B68D6
:100FC0000293B3F5006F34BF002301238DF8153071
:100FD00001238DF80C308B880889DA1D9042CA688D
:100FE00070DCC01A5FFA80FA1A4451463846FEF7A0
:100FF000CDFA2A689DF80C30517D002940F0DD8043
:101000005344DBB28DF80C30D36832681B6813444C
:1010100054F8042C1360424B5888059B009302AB94
:101020000ECBFEF7F1FB54F8043C31681A68521AF3
:10103000002A40F3EF80012800F01F81052800F00E
:101040000F81DA7D002A3FF47AAF5A7D002A7FF4BF
:1010500076AF2A6801215974D268526831680A440F
:101060001A606CE72B6832223A70DA68127B7A7069
:10107000DA68527BBA705A7D002AD3E902320293B1
:101080000CBF032308238DF80C3013683268134417
:101090000B60234B5888059B009302AB0ECBFEF7E9
:1010A000B3FB54F8042C316813685B1A002B40F32F
:1010B000C280012800F0C18005287FF478AF0023AA
:1010C000138274E71A4407213846FEF75FFA9DF849
:1010D0000C30326807338DF80C302B68DB681B68E6
:1010E000134454F8042C13600D4B5888059B00934F
:1010F00002AB0ECBFEF788FB54F8043C31681A684B
:10110000521A002A40F386800128DA7D57D005283C
:1011100098D10021198295E7EC15FE1F6C07FE1F80
:101120008806FE1FB809FE1F31203870D068007B8A
:101130007870D068407BB87090680290B0F5006F0E
:1011400034BF002001208DF81500507DD2680028A2
:1011500018BF08238DF80C301368326813440B60F5
:101160005A4B5888059B009302AB0ECBFEF74CFB05
:1011700054F8043C31681A68521A002A35DD2A688E
:101180000128D2F80CC0DA7C6ED0052801D10021EC
:1011900019829CF80E1091423FF609AF9B88D8F84F
:1011A00000204B49D268D1F800A000200221D0478E
:1011B000D8F8003000225A74F9E6082322E7197D96
:1011C000013101F00F011975998807319980002AC2
:1011D00069D19A7DF02A7FF641AF306802F00F02A4
:1011E000642111FB02021A60A9E6D8F800203849F0
:1011F0009B88D268D1F800A000200221D047D8F8FF
:10120000003000225A7454F8043C2A68D2F80CC00A
:10121000DA7CBEE7D8F804202D4B0421D3F800A0D7
:10122000D388D2680020D047D8F8043000225A74FE
:1012300054F8043C05E79388B1E700235374B6E6FD
:1012400054F8043C2A6830680021D974022159748A
:10125000D268117B5975D975926802441A60A6E666
:1012600000221A82DA7DEDE60132D2B2DA743068F9
:10127000DCF80410014419608BE7D8F80420144B03
:101280000321D3F800B0D388D2680020D847D8F81B
:10129000043000225A7454F8043C9A889244A3F80B
:1012A00004A0DA7DCEE65A7D0AB1013A5A759A7DDC
:1012B000F02A07D9316802F00F02642010FB0212F5
:1012C0001A60C2E631680A44FAE700BF8806FE1FCA
:1012D000E415FE1F2DE9F0439E4C002383B0CDE9B9
:1012E00000332368002B56D0082954D1196888424E
:1012F00000F0B380596888424DD1974E3568297CFB
:10130000012948D06F7C10685168052F6A4603C2D6
:1013100041D09DF80010012F01F0F00201F00F08FC
:101320003CD0202A00F08E8038D8002A64D0102AC1
:1013300031D18A4B1A78012A5BD09DF8014044EAEA
:101340000824072C27D9002F40F08F80EA882C81B1
:101350000023A242AB80EB74C0F083800DF1020247
:10136000E96812F8010BC8543568AB8802A901334B
:101370009BB28A42AB80F3D1794A2B891468EA6820
:1013800005210020A047774A336812681A600320BD
:1013900001215874197503B0BDE8F083302AFAD1E1
:1013A00071684A7C012AF6D1B8F1020F00F08F80F3
:1013B0006A4A1078012800F0A280B8F1010F7FD0AE
:1013C000B8F1000F40F0BA809DF80230654A83F012
:1013D000800014689DF801200C607028CA754A7559
:1013E00040F29480FA2B28BF7F2305228B754A7424
:1013F000D1E700221A70CEE7B8F1000FCBD011F080
:101400000809C8D1EA68002F6DD1554CAF8008F1AA
:1014100001080DEB080200230DF10101E86811F845
:10142000015BC5543568AB8801339BB28A42AB80FF
:10143000F4D12468EA6801210020A0473368002223
:101440005A74A8E7022FA6D1297DAB88EA684145E6
:1014500016D043490C683946EEE740490120087030
:101460004BE704222B606A7495E73D49AB88EA6834
:101470000D6800200221A847356800236B7465E7DA
:101480004A1C02F00F0229892A75DA1D92B2914294
:101490003ED8994210D90DF101015C1AEA6811F8A1
:1014A000010BD0543568AB8828890A19013392B2F0
:1014B0009BB29042AB80F1D82949EA680C68BAE740
:1014C000DB68284A5B68126813440B6063E7244BAF
:1014D00000241D68CB884C74CA6820460421A847A4
:1014E00073685C7457E71E4CAB8825680221484638
:1014F000A847356885F81190A5F8049087E7184B40
:1015000000241D684C74CB881470E5E77F236CE7DA
:101510000DF10102E96812F8010BC8543568AB8877
:1015200002A901339BB28A42AB80F3D123680D4AF2
:10153000DB6812689B6813442B602CE7084ACB8851
:101540001468CA6800200421A047736800225A74F6
:1015500021E700BFEC15FE1FB809FE1FE815FE1FAE
:10156000E415FE1F6C07FE1F2DE9F0414C4E06EB03
:10157000C00304465B684FEAC00E587C86B018B1C1
:10158000002006B0BDE8F081464FCDF80D0057F8B9
:1015900024C0CDF81100BCF1000FF1D0D8759880AF
:1015A0000120988215461A81DCF808200292B2F5D3
:1015B000006F34BF00220122072DD9608DF815205D
:1015C000EAB23AD9C5F3032545F0100558748DF8F1
:1015D0000D50082306258DF80C308DF80E202B4673
:1015E0000DF10F0076440A461946FDF7CFFF7268E9
:1015F00057F824309088DB68DFF8B48019682A4BEC
:1016000028449080D8F800000144116004EB4402A3
:1016100003EB42035888059B009302AB0ECBFEF709
:10162000F3F87268D8F8001013685B1A002B13DD0A
:1016300001281CD000231382A2E79CF815308DF8F6
:101640000D2002448DF80C2013B108238DF80C30C6
:101650002B460DF10E00C5E71449D3880D68D268FA
:1016600020460421A847736800225A7488E713892A
:10167000AB4209D957F82430D8F80010DB685B6812
:101680000B44136001207CE70849D3880D68D268B9
:1016900020460321A847736800225A74F2E700BF6E
:1016A000B809FE1FEC15FE1F8806FE1FE415FE1F7D
:1016B0006C07FE1F30B50C790D6883B00023CDE9AF
:1016C00000336B462CB118462246053101F0D6FB9B
:1016D00003461A4621462846FFF7FCFD03B030BDFD
:1016E00001F1FF3C70B504461D46BCF1040F24D83F
:1016F000DFE80CF00334465324002E4B2E4E40F608
:10170000024000FB0430E4B22946FDF73FFF00F041
:1017100021F956F834300122DA745A7D0AB10022D8
:101720005A7500F019F9254B254A1968126856F8C0
:1017300034300A44C3E900219D8170BD00F00AF9EC
:101740001D4BE0B2012153F830305A7D99740AB133
:1017500000225A75BDE8704000F0FEB800F0FAF8BB
:10176000154BE0B2012153F83030DA7C59750AB1DB
:101770000022DA749A7C002AECD000229A74E9E7FD
:1017800000F0E8F80C4BE0B203EBC0000122436824
:10179000BDE870401A7500F0DFB800F0DBF8064BCA
:1017A000E0B203EBC00001224368BDE870409A75C7
:1017B00000F0D2B82416FE1FF815FE1F2822FE1FC7
:1017C0006C07FE1F074B00EB410201EB400153F891
:1017D000220053F821200023036013619382937544
:1017E000704700BFF815FE1F70B5124B124C134A1C
:1017F0001349144EC3E90044C1E90022184603F11D
:10180000080E002241F2883C50F8043B346851F83D
:10181000045B1A6164447045C3E90022C3E90252C3
:101820009A829A759C61EFD1BDE870400648FFF737
:1018300061BB00BFF815FE1F0816FE1F2416FE1F11
:101840000016FE1F6C07FE1FE116010070B53F4D2C
:101850002B68002B38D06968002935D05A7C0024C9
:10186000002A3CD1DA7C12B106225A74DC74987CCE
:101870005E7D002830D001225A74002E3BD1DA7CE4
:1018800012B106225E825A74CA7D4B7CEAB1052BE6
:101890001DD004234B74CC75CA8989680020FFF7DA
:1018A00063FE002837D06B6805225A7428491A7DD8
:1018B0000C7032B129681C750A7C2AB306225C744C
:1018C0004A749A7D002A30D170BD042BE4D06B6835
:1018D0005A7C052AEAD070BD5A7C06B15875012A97
:1018E000D2D1D87C5A7D58B9002ACDD05C759C7471
:1018F0005C741C60C8E7D87C5C7500220028C3D0EB
:10190000062058745C82EFE7A8680A6002601A61DA
:101910009A829A7570BD0E496B680A780132D2B20C
:10192000052A0A700DD05A7CD3E72A68117C09B1C8
:1019300000211174A96800220A601A619A829A75BE
:1019400070BD58740870186070BD00BFF815FE1F98
:10195000F015FE1F704700BF704700BF2DE9F84328
:1019600017491848184CDFF87C80DFF87C90174F37
:10197000174E00F087FF134800F068FF154916481E
:1019800000F0C4FC1549164800F0E6FAFDF7BEFE6B
:10199000002523787BB998F80030002BF9D0D9F8CE
:1019A000003007FB03F3B6EBF30FF2D3237888F88C
:1019B0000050002BEFD02570FDF7B6FEEBE700BF1F
:1019C000703501004422FE1F3422FE1FD578E9261F
:1019D00037894100983501006022FE1FD035010093
:1019E0008C22FE1FB509FE1F3022FE1F022800D0E8
:1019F0007047024B0248596800F06AB9643501002B
:101A00003C22FE1F0D490E4B0A680E4801320A6047
:101A10001A680D4901321A601B6800FB03F3B1EB31
:101A2000730F02D3094B01221A70094B1B781BB1AB
:101A3000084A136801331360704700BF6C07FE1F2C
:101A40003822FE1FCDCCCCCC999999193422FE1F97
:101A5000B509FE1F3022FE1F8388B3F5806F00D0CA
:101A6000704710B582B000F1200443690268817E9E
:101A7000007E0094FDF76EFE02B010BD08B5FFF7C2
:101A80006DFF002008BD00BF0346002018607047AE
:101A90000B0A1B01044853FA81F150F82130C3F3BB
:101AA000400300201370704700080440090A4901F0
:101AB00001F1804101F5802100204B6813807047BF
:101AC000090A490101F1804123EA020001F5802160
:101AD0001A4042EA00428A600020704710B4CBB23C
:101AE00001249C40A4B202B924040B0A5B0103F157
:101AF000804303F5802300209C605DF8044B704711
:101B0000090A490101F1804101F5802110B40C68F6
:101B100002EA0300204362EA030202405DF8044B3C
:101B20000A600020704700BF090A490101F18041A5
:101B300001F5802100204B68C3F30F4313807047E9
:101B40000B0A5B0103F1804303F58023C9B2586897
:101B500001238B4099B203EA10435B1AB3FA83F373
:101B60005B09137000207047090A490101F18041A7
:101B700023EA020001F580211A4042EA0042CA60CD
:101B8000002070470B0A5B0103F1804303F58023BB
:101B9000C9B20120012A00FA01F0DA6806D042EA4F
:101BA0000042120C1204DA6000207047024392B225
:101BB000DA600020704700BF2DE9F041068896B337
:101BC00040684FF0000800EBC60644460127B0F815
:101BD00004E0164A002332F8021B8E450BD105683B
:101BE00007FA03F105F0B85CC9B2BCF1807F0CBF05
:101BF0000C4348EA01080133032BECD1083086423C
:101C0000E5D16FEA0805EDB2012001F039F8084A84
:101C100092F8BB3423431D4082F8BB540120BDE839
:101C2000F04100F0FDBFFF253446EDE7DC36010052
:101C300000E00140F8B50446FFF7BEFFEFF3108265
:101C4000012383F310881F4F3B681BB91E49CB70DB
:101C50004023CB703B6801333B6082F310882388BC
:101C6000E3B16168194C01EBC30E8A880868130A56
:101C7000C503D2B202EB031C09D554F82C6020F442
:101C800080356FF3104644F82C6044F82C501B014B
:101C9000134408318E4544F82300E6D1EFF3108257
:101CA000012383F310883B6813B13B68013B3B6021
:101CB0003B681BB904498020CB70C87082F3108840
:101CC000F8BD00BF1823FE1F000D044000080440AB
:101CD00008B50346034A1A600846FFF7ABFF002029
:101CE00008BD00BF54524F5008B50846FFF7A2FF89
:101CF000002008BD70B584B002AB012668460C46D2
:101D00001546ADF80C100292ADF800600193FFF794
:101D100053FFEFF3108286F310881D490B681BB93F
:101D20001C48C3704023C3700B6801330B6082F3FF
:101D30001088EA034FEA1423E4B219D41B01164AAF
:101D4000234442F82350EFF31082012383F31088D9
:101D50000B6813B10B68013B0B600B681BB90D4995
:101D60008020CB70C87082F31088002004B070BD52
:101D700004EB0310084A52F820606FF3104642F853
:101D8000206025F4803642F820601B01D7E700BFB1
:101D90001823FE1F000D044000080440374A384B4A
:101DA000014630B40020012481F8340082F8164442
:101DB000156A146A1B68C4F30264C5F3026203FA6D
:101DC00002F2A340C5F30275E3402E4CEA40A24262
:101DD0004FD92D4C03F5742302F5742203F23F23EF
:101DE00002F23F22A4FB0353A4FB0242920C274CB5
:101DF00002F5F052A4F8E4209B0C254A43F6B854AF
:101E000003FB04F4A2FB0454A4088C6040F6D864DD
:101E100003FB04F4A2FB0454A408CC605C00A2FB06
:101E20000454A4080C61542403FB04F4A2FB0454DE
:101E3000A4084C61174C03FB04F4A2FB0454A4084F
:101E40008C6144F2506403FB04F4A2FB0454A40824
:101E50004C62114C03FB04F4A2FB0454A4080C6272
:101E60000E4C04FB03F3A2FB03239B0830BCCB61A5
:101E700070474FF4FB7030BC704700BF00E001407A
:101E8000A824FE1FFF083D0083DE1B4300E07F40C7
:101E9000ABAAAAAA38AF040080DE0F00A0F70300A7
:101EA00010B4037883B04FF49642019203BB284AE2
:101EB0004AF68023A2F88430B2F884309BB2802B9B
:101EC00008D110E0019B013B0193B2F884309BB232
:101ED000802B08D0019B002BF4D14FF4FA7003B093
:101EE0005DF8044B7047002003B05DF8044B704769
:101EF00090F91130174C03F1C00254F822106FF31F
:101F0000104144F8221003F01F015B099B0003F10C
:101F1000604303F56143012202FA01F1C3F8801125
:101F2000196090F9131001F1C00354F823006FF306
:101F3000104044F823004B099B0003F1604303F574
:101F4000614301F01F018A40C3F880211A60AEE7A7
:101F500000E07F40006000402DE9F8430B784160CD
:101F6000044653B92D4A137613752046FFF716FF22
:101F700008B92B4B2360BDE8F8834A68CB68DFF8CB
:101F80009CE08263036400270120E7638EF8180059
:101F900091F911300A7C234EDFF890C0F518120138
:101FA000D2B285F8002303F1C0084CF823401E4D3F
:101FB0005A09920055F8289002F1604202F56142F8
:101FC00003F01F0300FA03F367F3104945F8289064
:101FD000C2F88031136098238EF8143091F91320E1
:101FE0008B7C16441B01DBB286F8003302F1C00182
:101FF0004CF8224053099B0002F01F02904003F16D
:10200000604355F8212003F5614367F3104245F81A
:102010002120C3F880011860A7E700BF00E07F40DF
:102020004E45504F00E100E0006000401C23FE1FC1
:102030005B0870B503631E4B00259A42C0E90A1283
:1020400080F8345003D8BDE8704001F035B84568D9
:1020500004462846FFF724FF0346B0B92A78B2B9F0
:10206000E66805E001F01CF8236B0546A3B1D0B982
:1020700032460421204601F01BF863681D781822BF
:102080004FF480510346002DECD0184670BD01225C
:1020900084F834200646EBE700F0FAFF0346002DF3
:1020A000F3D02B46F1E700F0F3FF2B46EDE700BF3E
:1020B000FFFF0F40284B70B5044699424FF00000D7
:1020C00084F8340011D8B1F5803F34BF21F4FF51BA
:1020D00021F4FF41204638BF21F01F01BDE87040C8
:1020E00028BF21F07F0100F0DFBF6568226321F087
:1020F0003F01A1622846FFF7D3FE064640BB2D787C
:10210000F5B9E668154B0122A3F8E02040213246DC
:10211000204600F0C1FF1DB111E0ADB900F0BCFFD9
:1021200019224FF4005100F0BBFF236B05463246E5
:1021300040212046002BF0D100F0AAFF35B970BD38
:10214000022384F83430DDE700F0A2FF284670BD9A
:102150004FF4FA7070BD00BFFFFF0F4000E07F40FA
:10216000F0B5076A8BB006468C465FB3BE46BEE844
:102170000F006C460FC4BEE80F000FC49EE80300BA
:1021800084E80300BCE80F003D460FC5BCE80F0023
:102190000FC59CE803008EE80300F36938469847B2
:1021A000336A6BB1EE469C46BEE80F00ACE80F0008
:1021B000BEE80F00ACE80F009EE803008CE80300C7
:1021C0000BB0F0BD0F46E8E7437B934210B4446880
:1021D00052D0B4F840386FF38A23A4F84038B4F8EA
:1021E00040384FF0020C6CF30923A4F84038B4F8DF
:1021F000423803F4E063B3F5007FF8D1022384F89A
:10220000582842730373994215D00529B4F8403811
:1022100014D06FF38A23A4F84038B4F8403861F33F
:1022200009230A02A4F84038B4F8423803F4E06302
:102230009342F9D101735DF8044B70476FF38A2321
:10224000A4F84038B4F84038022262F30923A4F815
:102250004038B4F8423803F4E063B3F5007FF8D1B6
:10226000B4F8403843F48063A4F84038B4F84238F6
:102270005B05FBD50173DEE7037BC4E7436870B5FC
:1022800003EB010E9EF820C85FEADC1C2FD100682A
:10229000146800691679007B557908BB1A4800EA72
:1022A000844020310C0140EA8570185103EB011C79
:1022B00002F10C009179BCF80420063461F30302AA
:1022C0002344ACF8042031B1194410F8012B03F871
:1022D000012B9942F9D180238EF82038002070BD5F
:1022E000022807D024F0604444EA0C00D9E74EF6F7
:1022F000632070BD002ED1D0A6F10106B6FA86F695
:1023000076094FEAC67CEDE70000FC1F2DE9F04F8F
:102310000C680D6904F580245034240383B00F4603
:1023200006464460EFF3108E012181F310889F4A26
:102330003B68D2F800C1C3F1020301FA03F32CEAAF
:102340000303C2F80031D2F800318EF31088BB6865
:10235000C361FB6807604FF00008C0E9088395F887
:10236000009080F818904246FFF72EFFD7F804C07F
:10237000297DDCF80830DCF80420DCF80CE0013BB7
:10238000013A1B0243EA0273DCF8002043EA090326
:102390000EF1FF3C43EA0C3302F1FF3C2A7BC900FB
:1023A00041EA4201824A02EA0C42134341F4E071DD
:1023B000A4F840184246C4F844380221FFF704FF4D
:1023C00080234FF4007284F85038A018414600F082
:1023D00045FD2B69A868DFF8DCE142460AE09A4235
:1023E0000DD304EB020C0132202A8CF8201800F1E6
:1023F000080024D081790029F1D00021F1E795F877
:102400000C80036890F8049090F805C0B8F1000FB4
:1024100012D0B8F1020F0BD023F060430B4302F14E
:102420002001090143EA8C73635040212B69D8E7EE
:10243000B9F1000F40F0AE800EEA8343EFE79B084E
:1024400000F0B1806A680196A2F1040C00220CEB46
:10245000830390466FF060494FF00F0B5CF8041F48
:10246000494502F5807E0ED295F80CA09000BAF195
:10247000000F02D14F4E06EA814144F82E100BFAAC
:1024800000F148EA0108634502F10102E6D1019E2C
:102490006FEA08030022C4F8283411463046FFF7DB
:1024A00093FEB4F8403843F02003A4F84038B4F861
:1024B0004038C3F340109B06F9D497F91530397DA5
:1024C000DFF8F4E0DFF8F480DFF8F4C00EEB03028D
:1024D0000901C9B282F8001303F1C00548F823606E
:1024E0005A095CF82590920060F3104902F16042AD
:1024F0004CF8259002F56142012503F01F0305FA0F
:1025000003F3C2F88031136097F91630DFF8B49006
:102510000EEB030203F1C00A82F8001348F82360AF
:102520005A095CF82AB0920002F1604202F5614259
:1025300060F3104B03F01F034CF82AB005FA03F3C5
:10254000C2F88031136097F91720964453098EF82A
:10255000001348F8226002F1C0019B0002F01F0244
:10256000954003F160435CF8212003F5614360F37B
:1025700010424CF82120C3F880511D603E2384F89E
:102580004C384FF0FF33C4F82C34C6F8089003B031
:10259000BDE8F08FA9F10109B9FA89F94FEA591993
:1025A0004FEAC97138E74FF0FF3373E7006F04401B
:1025B0000000FF030000FC1F00E100E01C23FE1FE1
:1025C000006000404E41435230B58BB0EFF30383BF
:1025D000103B5BB22E4AC03352F823106FF3104108
:1025E00042F82310EFF30383103B5BB2294A52F801
:1025F000235000212822684600F030FC6C6894F8D3
:102600004D380020DBB284F84D08ADF80430B4F842
:102610004218C1F30012C90638D543F02003ADF8C3
:102620000430022394F8532884F8533894F852382D
:1026300003F01F03D2B2E11884F8532891F8202840
:1026400060F3820281F820282A68126800926946A5
:102650006A6A039328460492FFF782FDB4F8423871
:10266000DB0611D52B681A69127D6AB193F9153012
:10267000002B09DB5A09084803F01F0301214032EF
:1026800001FA03F340F822300BB030BD1346DBE70C
:10269000006000401C23FE1F00E100E02DE9F04136
:1026A0008AB0EFF30383103B5BB23D4AC03352F86C
:1026B00023106FF3104142F82310EFF30385103D10
:1026C000384B6FB2002253F82700D0E9008494F809
:1026D000533884F8532894F8526806F01F06DBB28A
:1026E00006F1200284F85338130105F0FF05E15884
:1026F00054F803C0C1F380738DF81930D8F8103046
:102700001B7B43EADC7303F001038DF81830002BC8
:1027100042D1C1F38A4104EB02120591938803F080
:102720000F03082B9C4628BF4FF0080C8DF81AC0E9
:102730006BB10DF11F02002304EB061E0EEB03012B
:10274000013391F8061202F8011F6345F6D1D8F85B
:102750000030039626440093442386F82038002353
:1027600007934FF48063ADF804306946436A0493DD
:10277000FFF7F6FCB4F84238DB070AD5002F08DB78
:102780006B09094905F01F0501224033AA4041F8B1
:1027900023200AB0BDE8F08121F06041BBE700BF13
:1027A000006000401C23FE1F00E100E070B58AB00D
:1027B000EFF30383103B5BB2214AC03352F823107E
:1027C0006FF3104142F82310EFF30383103B1D4ACF
:1027D0005BB2012652F823506C6894F8532884F8B1
:1027E000536894F85238D2B203F01F0384F8532888
:1027F0000393E2184FF40063ADF804302B681B68B4
:1028000000936B6A0493002382F82038694682F8AB
:1028100020382846FFF7A4FCB4F842389B070CD5B3
:102820002B6893F91730002B07DB5A09064903F090
:102830001F0340329E4041F822600AB070BD00BFC5
:10284000006000401C23FE1F00E100E08268117A56
:1028500001F00101137AC3F340039942FAD14368AE
:102860001978012908D1C16893F810C004484B1E9B
:102870009BB240F82C101380F12313720020704794
:10288000D022FE1F0B7C03F1401303F500631B02F3
:10289000F0B40446C0E90113EFF31085012383F37C
:1028A0001088087C384AC0F103008340D2F8080140
:1028B00020EA0303C2F80831D2F8083185F3108802
:1028C000A26800231372137AC3F340009B07844667
:1028D000F9D49072C8690D7AC3780678007903F04C
:1028E0000703002E41D1002D46D110734868676858
:1028F000002696735372431E95729BB2E0603D7C36
:102900001380224B43F8250091F91230B34222DBA9
:102910004A7C03F1604000F561401201D2B280F8B8
:1029200000231B4A1B4842F8234003F1C0055A0903
:1029300050F82570920002F1604266F3104740F8AB
:10294000257002F5614203F01F03012000FA03F332
:10295000C2F880311360D1E9055200200E4B256189
:10296000C4E905022360F0BC7047502E06BF43F057
:10297000500365463343B8E785F0020543EA051383
:10298000DBB23546B1E700BF006F0440D022FE1F26
:102990001C23FE1F0060004054474100F0B585B085
:1029A000EFF30383103B5BB203F1C0011B4A1C4CE5
:1029B00052F821006FF3104042F8210054F82340F0
:1029C000D4E901120978137A0129DBB204D1F42188
:1029D00003F0F003117213722769B7B1656901AE94
:1029E000CDB195E8070086E807009B0644BF0023A9
:1029F0002B71A3692B602846B84763691BB196E821
:102A0000070083E80700A268137ADBB203F00F0324
:102A1000137205B0F0BD3546E7E700BF0060004027
:102A20001C23FE1F064B074993F826001A6A51F82B
:102A300020300549C2F30262D3400B60704700BFEB
:102A400000E001403807FE1FA824FE1F38B53A4BAE
:102A50003A493B4C3B4A3C4D4AF20350A3F8FE0333
:102A60000020A1F80001394993F826006160384937
:102A700022604FF40042C4E90221364922616161BB
:102A8000196A54F82020C1F30261CA402A6020214B
:102A9000092283F8131483F8A22093F88024002AD3
:102AA00042D0254A0023062182F8813482F88034FE
:102AB00082F8A51082F8323092F83C301907FBD525
:102AC0004FF41C510023118582F82A301A4A92F8DB
:102AD0003C309B06FBD51949022381F81C310523A4
:102AE00082F826301C4B136292F8263054F82300EB
:102AF000146AC4F30264E0402860012340244FF4C8
:102B0000254082F8303082F8523082F82440A2F812
:102B1000FE03A1F80431B1F804319BB2002BFAD1C5
:102B20000123A1F8003138BD012183F8801440F25F
:102B3000C44000F01DF8B4E700E0014000C00140CF
:102B40003807FE1F002D3101A824FE1F00127A0055
:102B5000001BB700001C4E0E21120121704700BF60
:102B600000BEFEE7A0F101000028FBD1704700BFC6
:102B700030B400FB01F1104D104A2868B2FBF0F2AE
:102B80004FF47A73A1FB03C43CB9BCFBF2FC4FEADF
:102B90009C0070B130BCFFF7E5BF9200B1FBF2F1D1
:102BA000A1FB03134FF0FF30002BF3D108460028A0
:102BB000F0D130BC704700BFA824FE1F00CA9A3B6A
:102BC0000B4B70B5B3F840510A4E0024ADB225FA54
:102BD00004F3DB0704D556F82430E0B203B198477C
:102BE0000134102CF3D1024BA3F8305170BD00BF5B
:102BF00000600040D822FE1F10B4074A074C002393
:102C000003F1C001013332F8020F44F82100602BB8
:102C1000F6D15DF8044B70471A36010000600040A1
:102C2000EFF31081012383F31088124B33F8102047
:102C300092B22AB133F81020013A92B223F8102050
:102C400033F810309BB293B90B4A10B4B2F8FE338C
:102C50000A4C9BB234F8100043F4254323EA0003E6
:102C6000A2F8FE3381F310885DF8044B704781F3BE
:102C7000108870479C24FE1F00E0014018370100B7
:102C800030B4EFF31081012383F310880E4A32F839
:102C900010309BB26BB90D4C0D4DB4F8FE3335F8C6
:102CA00010C09BB243EA0C0343F425439BB2A4F843
:102CB000FE3332F8103001339BB222F8103081F32A
:102CC000108830BC704700BF9C24FE1F00E001400C
:102CD000183701000B4A08B50346106840B10333AA
:102CE000094923F0030303448B4204D8136008BD51
:102CF00006481060F3E700F0B9F80C2303604FF0CA
:102D0000FF3008BDA424FE1FE029FE1FF825FE1F8A
:102D100000BE704708B500F003F8FEF7AFFEFEE70F
:102D2000224B234A4FF4700170B50020C3F888107D
:102D30009A60FEF75BFEFFF789FE0120FEF756FE64
:102D40001C4B1D491D4D1E4E1E481F4A00244FF4AA
:102D5000254C9C80A3F800C09E60DD604FF4805538
:102D6000A1F8205101219980121A214600F076F82D
:102D70001648174A1749184D121A00F07FF8174BDA
:102D80005B1BA34206DD9E1055F8043B01349847B7
:102D9000A642F9DCFFF746FE0220FEF727FEFFF70A
:102DA0002BFFBDE870400020FFF7D8BE00ED00E02B
:102DB00000F00000000D004000600040E02DFE1F0C
:102DC000E029FE1F5007FE1FF425FE1F0000FE1F16
:102DD0003807FE1FC43701003007FE1F3407FE1FEF
:102DE000164B10B51C68236BB3B9182000F054F8CB
:102DF0000246206320B9124B12485221FFF7B0FE61
:102E00001149124BC0E90013114B83600B238381DE
:102E100000210120C2E90401216B0E480B694C69B5
:102E20000D4A584302FB0400A3FB0232013340EB7E
:102E30000200C1E9043020F0004010BDE006FE1F92
:102E400020370100373701000E33CDAB34126DE669
:102E5000ECDE05002DF451582D7F954C02440346BD
:102E6000934200D1704703F8011BF9E7014B186842
:102E7000704700BFE006FE1F704770470A4491424A
:102E800000F1FF3300D1704710B511F8014B03F882
:102E9000014F9142F9D110BD024B0146186800F074
:102EA00025B800BFE006FE1F70B50F4E0C46316816
:102EB000054611B900F0A6F830602146284600F01A
:102EC000A1F8431C03D14FF0FF34204670BDC41C51
:102ED00024F00304A042F8D0211A284600F092F80A
:102EE0000130F2D1EFE700BFEC25FE1F2DE9F843DA
:102EF000CD1C25F0030508350C2D38BF0C25002D01
:102F0000064601DBA94204D90C2333600020BDE84A
:102F1000F883DFF8D48000F069F8D8F800301C4658
:102F200044BB29463046FFF7BFFF431C044658D137
:102F3000D8F800402746002F43D1002C4BD02368FF
:102F40003946304604EB030900F05CF8814542D174
:102F500021686D1A29463046FFF7A6FF01303AD0A6
:102F600023682B442360D8F800305A6862BBC8F845
:102F700000700FE02268521B20D40B2A17D9611968
:102F8000A342256018BF5960636808BFC8F80010E5
:102F900062514B60304600F02FF804F10B00231D06
:102FA00020F00700C21A1CBF1B1AA350AFE76268CB
:102FB000A3420CBFC8F800205A60EBE723466468C0
:102FC000AEE73C467F68B6E71A465B68A342FBD192
:102FD00000235360DEE70C233360304600F00CF82A
:102FE00094E70560D6E700BFF025FE1F0148FFF714
:102FF00043BF00BFE825FE1F0148FFF73EBF00BFEB
:10300000E825FE1F38B5064D0023044608462B6010
:10301000FFF760FE431C02D12B6803B1236038BD6B
:10302000E425FE1F4275696C74207769746820522C
:10303000656E6573617320416476616E63656420BB
:10304000466C657869626C6520536F66747761724F
:1030500065205061636B6167652076657273696F87
:103060006E20342E302E3000342E302E30000000F2
:1030700000000004F8B500BFF8BC08BC9E467047CD
:10308000F8B500BFF8BC08BC9E467047FFFFFFFFC5
:103090005FF800F00100FE1F5FF800F09101FE1FD5
:1030A0005FF800F0D502FE1F5FF800F0A104FE1FDC
:1030B0005FF800F0E501FE1F5FF800F05D04FE1F01
:1030C00005000000C8000200000000000000000031
:1030D00001000000B5160100000000000100000022
:1030E00001000000B5160100000000000200000011
:1030F00001000000B516010000000000F00700000C
:10310000F0070000000010000000000001000000B7
:103110000100000069F600009C07FE1FF147DA1B62
:10312000FFFFFF1F00001000010000000100000071
:103130000100000069F600009C07FE1FF1FFDA1B8A
:10314000FFFFFF1F00001000010000000100000051
:103150000200000069F60000B007FE1FF107000042
:10316000000000000000100000000000000000004F
:1031700003000000000000000000000047F1DA1B1F
:10318000000000000000100001000000000000002E
:10319000030000000000000000000000F106000035
:1031A000000000000000100000000000000000000F
:1031B0000400000000000000000000008D01020477
:1031C00008102040801B366CD8AB4D9A2F5EBC6334
:1031D000C697356AD4B37DFAEFC5913972E4D3BD91
:1031E00061C29F254A943366CC831D3A74E8CB8D27
:1031F00001020408102040801B366CD8AB4D9A2F7A
:103200005EBC63C697356AD4B37DFAEFC591397257
:10321000E4D3BD61C29F254A943366CC831D3A74C2
:10322000E8CB8D01020408102040801B366CD8AB1F
:103230004D9A2F5EBC63C697356AD4B37DFAEFC54D
:10324000913972E4D3BD61C29F254A943366CC8321
:103250001D3A74E8CB8D01020408102040801B3613
:103260006CD8AB4D9A2F5EBC63C697356AD4B37DDC
:10327000FAEFC5913972E4D3BD61C29F254A9433F8
:1032800066CC831D3A74E8CB8D01020408102040FF
:10329000801B366CD8AB4D9A2F5EBC63C697356ADF
:1032A000D4B37DFAEFC5913972E4D3BD61C29F25D5
:1032B0004A943366CC831D3A74E8CBFF52096AD531
:1032C0003036A538BF40A39E81F3D7FB7CE339821B
:1032D0009B2FFF87348E4344C4DEE9CB547B94326A
:1032E000A6C2233DEE4C950B42FAC34E082EA166B2
:1032F00028D924B2765BA2496D8BD12572F8F66489
:1033000086689816D4A45CCC5D65B6926C70485003
:10331000FDEDB9DA5E154657A78D9D8490D8AB00B8
:103320008CBCD30AF7E45805B8B34506D02C1E8FE1
:10333000CA3F0F02C1AFBD0301138A6B3A9111411D
:103340004F67DCEA97F2CFCEF0B4E67396AC742206
:10335000E7AD3585E2F937E81C75DF6E47F11A7184
:103360001D29C5896FB7620EAA18BE1BFC563E4BBD
:10337000C6D279209ADBC0FE78CD5AF41FDDA8337F
:103380008807C731B11210592780EC5F60517FA9BF
:1033900019B54A0D2DE57A9F93C99CEFA0E03B4DEE
:1033A000AE2AF5B0C8EBBB3C83539961172B047E62
:1033B000BA77D626E169146355210C7D637C777B4F
:1033C000F26B6FC53001672BFED7AB76CA82C97D21
:1033D000FA5947F0ADD4A2AF9CA472C0B7FD9326B2
:1033E000363FF7CC34A5E5F171D8311504C723C3B6
:1033F0001896059A071280E2EB27B27509832C1AFA
:103400001B6E5AA0523BD6B329E32F8453D100ED53
:1034100020FCB15B6ACBBE394A4C58CFD0EFAAFB37
:10342000434D338545F9027F503C9FA851A3408FFF
:10343000929D38F5BCB6DA2110FFF3D2CD0C13EC17
:103440005F974417C4A77E3D645D197360814FDCAC
:10345000222A908846EEB814DE5E0BDBE0323A0A90
:103460004906245CC2D3AC629195E479E7C8376D14
:103470008DD54EA96C56F4EA657AAE08BA78252E39
:103480001CA6B4C6E8DD741F4BBD8B8A703EB566C2
:103490004803F60E613557B986C11D9EE1F89811B3
:1034A00069D98E949B1E87E9CE5528DF8CA1890DA2
:1034B000BFE6426841992D0FB054BB1610000000C2
:1034C00000000000310D01000700000011000000A5
:1034D000000000003D0C0100060000002700000075
:1034E00000000000BD0A0100060000003E000000D0
:1034F0000000000001FC0000060000003100000098
:10350000000000005D030100060000003400000020
:1035100000000000B10101000600000035000000BD
:1035200000000000B5FF00000600000036000000AB
:10353000000000006DFD000006000000F133DB1804
:10354000F0070000F10700005435010001000300FE
:10355000020100001400000046000000910000007D
:10356000000110003C22FE1FE4350100E43601009A
:103570000000000060EA000000000000307500005C
:1035800000020000051A0100000000009035010053
:1035900000000001000000FF00000000C006FE1F48
:1035A000591A010000000000B035010001010203BA
:1035B000010000008822FE1FA006FE1F020000007E
:1035C00004000000000000000000000000000000F7
:1035D00000000000000000000000000000000000EB
:1035E000FFDFFFDF06000000EC35010000000100F6
:1035F00008010000000001000901000000000100B6
:103600000A0100000000010000030000000001109A
:1036100001040000000001100204000040008A00C4
:103620008D008E008B008C00000000000000000068
:10363000000000000000000000000000000000008A
:10364000000000000000000000000000000000007A
:10365000000000000000000000000000000000006A
:10366000000000000000000000000000000000005A
:10367000000000000000000000000000000000004A
:10368000000000000000000000000000000000003A
:10369000000000000000000000000000000000002A
:1036A000000000000000000000000000000000001A
:1036B000000000000000000000000000000000000A
:1036C00000000000000000000000000000000000FA
:1036D00000000000000000000000000002040304DD
:1036E0000404FFFFD11C0100891A0100E91C01003C
:1036F000F51C0100411B0100851B0100911A01000E
:10370000DD1A0100011B0100291B0100691B0100DA
:10371000AD1A0100C11A01000100020008001000EA
:103720005245454E54206D616C6C6F632073756318
:10373000636565646564002F646174612F6A656EFA
:103740006B696E732F776F726B73706163652F4750
:103750004E552D746F6F6C636861696E2F61726D69
:103760002D31322D6D7061636274692F7372632F16
:103770006E65776C69622D63796777696E2F6E6508
:10378000776C69622F6C6962632F7374646C696211
:103790002F72616E642E63001000000000000000B4
:1037A000017A5200027C0E011B0C0D00100000007B
:1037B00018000000000000001000000000000000E1
:0437C0000000000005
:1037C40014494FF42A43B1F884C0A1F88430B1F805
:1037D400840080B21FFA8CFC60B14FF49642002042
:1037E400B1F88430002A9BB208BF4FF4FA70013A52
:1037F400002BF5D1BCF1010F00D07047064AA2F8A6
:1038040004C1B2F804319BB2002BFAD10123A2F80F
:103814000031704700E07F4000C00140114B124A64
:1038240082B0B3214FF4964001901970D2F88030E1
:1038340019040DD406E0019B013B0193D2F88030BA
:103844001B0405D4019B002BF5D1142002B0704752
:10385400054B1B7C13F0100F40F2F51008BF00203D
:1038640002B0704700007E4000E07F40114B124AD6
:1038740082B050214FF4964001901970D2F88030F4
:1038840019040DD406E0019B013B0193D2F880306A
:103894001B0405D4019B002BF5D1142002B0704702
:1038A400054B1B7C13F0100F40F2F51008BF0020ED
:1038B40002B0704700007E4000E07F4043681A7801
:1038C40070B50446F2B193F911301F485909012229
:1038D400203103F01F0302FA03F340F82130BFF351
:1038E4004F8FBFF36F8F636893F91330590903F057
:1038F4001F039A4001F1200340F82320BFF34F8FA8
:10390400BFF36F8F114BB3F884309BB2C3B1FFF791
:1039140085FF0546FFF7AAFF064635B1FFF750FFBE
:10392400002384F83430284670BDFFF749FF002394
:10393400002E14BF3546054684F83430284670BD41
:10394400606800F04DFAE2E700E100E000E07F404B
:1039540030B4124C836A2363114D0B44016B4FF056
:10396400200C85F800C001394FF0D00C85F800C058
:1039740083620163104622B1D4F880301A0403D55F
:10398400002030BC704730B1D4F880301B0400F103
:10399400FF30F8D5F4E7142030BC704700E07F40D6
:1039A40000007E40F0B54E0883B0C1F34701002A01
:1039B4004CD14368344F93F911305C09203401250C
:1039C40003F01F0305FA03F347F82430BFF34F8FC6
:1039D400BFF36F8F2D4CC56A2D4B2563E8241C70F3
:1039E4001970002E4DD0D0F810E0856A284F274C6E
:1039F4004FF0000C2B88CDF804E03B8004E0019BE1
:103A0400591E0191002B39D0D4F880305B05F6D4CF
:103A1400C36A0233C362036B0CF1010C0235013B30
:103A2400B44585620363E5D3194BD0211970C2B93B
:103A34004368154993F911300122580903F01F0313
:103A440002FA03F341F82030002018E00F4CC56A55
:103A54000F4B2563E8241C701970002EC3D1D021AC
:103A640019700A49D1F880301804EDD4D1F88030A7
:103A74001B0402F1FF32E7D4002AF7D1142003B06B
:103A8400F0BDD0221A70D3E700E100E000E07F40EF
:103A940000007E4010B5134B1C7CE40607D4D3F819
:103AA400803019420FD1B0B90024204610BDD3F89C
:103AB4008040640403D5002493F810C01C74D3F828
:103AC4008030194209D030B9002AEDD01446FFF7EE
:103AD400A5FE204610BD0446F9E70028FBD140F2BC
:103AE400F514F4E700E07F4030B4164A8569164CBB
:103AF400164B82B04020019511630822207003F117
:103B04001001227033F8022F22808B42FAD1D02385
:103B14000C4A2370D2F8803019040ED406E0019BBD
:103B2400013B0193D2F880301B0406D4019B002B87
:103B3400F5D1142002B030BC7047002002B030BC74
:103B4400704700BF00E07F4000007E40CE06FE1FAD
:103B5400084B42EAC0326FEA41514FF0FF3042F461
:103B6400F0426FEA5151C3E902001860DA8099808B
:103B7400704700BFD006FE1F10B4436824491A786A
:103B840083B04FF496444FF0000C0194A1F800C1A7
:103B9400EAB193F911301F4C59090122203103F085
:103BA4001F0302FA03F344F82130BFF34F8FBFF32E
:103BB4006F8F436893F913305909203103F01F03C1
:103BC4009A4044F82120BFF34F8FBFF36F8F124AFE
:103BD4004AF60123A2F88430B2F884309BB2012B58
:103BE40008D110E0019B013B0193B2F884309BB2F1
:103BF400012B08D0019B002BF4D14FF4FA7003B0D1
:103C04005DF8044B7047002003B05DF8044B704727
:103C140000C0014000E100E000E07F4038B5054607
:103C2400FFF7AAFFA0B92B6B0BB916E088B9AA68F5
:103C340080212846FFF7B6FE18224FF4A041FFF773
:103C440029FF2B6B0446002BF0D1FFF7B9FD14B903
:103C540038BDFFF7B5FD204638BDBDE83840AFE5B7
:103C6400F8B5816202630446FFF786FF10BB154A6C
:103C7400236B0121A2F8E0100BB3D4E9076700E03D
:103C8400C8B9A36AB3F5803F324632BF4FF400513E
:103C94003A464FF400412046FFF75AFE19224FF4EA
:103CA400C041FFF7F7FE236B0546002BE8D1FFF771
:103CB40087FD15B9F8BDFFF783FD2846F8BDBDE8BB
:103CC400F8407DE500E07F402DE9F041114B0546C9
:103CD400D3F8DC600F469046FFF74EFF0446A8B9C0
:103CE400F60F4FEA5832790B3046FFF731FF4AF2AC
:103CF40060112846FFF7F8FE21461822FFF7CAFE96
:103D04000446FFF75DFD002C08BF04462046BDE8CD
:103D1400F08100BF00E07F40F8B507460D46164627
:103D2400FFF72AFF044620BB134B36B145F4CC41C0
:103D3400A3F8E810BDE8F84042E5D3F8DC10D3F866
:103D4400DC20ED43C2F30A42C1F30A0105F001008D
:103D5400FFF7FEFE4AF260113846FFF7C5FE214622
:103D64001822FFF797FE0446FFF72AFD002C08BF30
:103D740004462046F8BD00BF00E07F40F8B5074682
:103D84000C461646FFF7F8FE20BB144D21462B4681
:103D940004F11000BEB10A6843F8042B04318142D7
:103DA400F8D19EB94AF250113846FFF79DFE182209
:103DB4000021FFF76FFE0546FFF702FD002D08BF47
:103DC40005462846F8BD4FF0FF32E5E7EB891E4370
:103DD400EE81E7E705462846F8BD00BFD006FE1F82
:103DE4005FF800F0A11E01000100000041414141C3
:103DF40042334E7A61433179633245414141414412
:103E0400415141424141414241514361000000005E
:103E1400000001000000010001000000008001001A
:103E24000080000000FF05003D06010000010400C1
:103E340001FF0800A10601000500040000000000C5
:103E4400000000000000000000000300010000006A
:103E540032000000B80B000032000000881300009C
:103E6400F007000000000000F1070000000001005E
:103E74000200000000000100030000000000000038
:103E8400020000000800000003000000030000001E
:103E9400FFFF000000000000000000000000000020
:103EA400E406FE1F00000000AC24FE1F1425FE1FC4
:103EB4007C25FE1F00000000000000000000000040
:103EC40000000000000000000000000000000000EE
:103ED40000000000000000000000000000000000DE
:103EE40000000000000000000000000000000000CE
:083EF40069F5000041F5000032
:00000001FF
